{"abi":[{"type":"constructor","inputs":[],"stateMutability":"nonpayable"},{"type":"function","name":"getPetterStats","inputs":[{"name":"petter","type":"address","internalType":"address"}],"outputs":[{"name":"pets","type":"uint256","internalType":"uint256"},{"name":"name","type":"string","internalType":"string"},{"name":"isTop","type":"bool","internalType":"bool"}],"stateMutability":"view"},{"type":"function","name":"petCapybara","inputs":[],"outputs":[],"stateMutability":"nonpayable"},{"type":"function","name":"petterNames","inputs":[{"name":"","type":"address","internalType":"address"}],"outputs":[{"name":"","type":"string","internalType":"string"}],"stateMutability":"view"},{"type":"function","name":"petterPets","inputs":[{"name":"","type":"address","internalType":"address"}],"outputs":[{"name":"","type":"uint256","internalType":"uint256"}],"stateMutability":"view"},{"type":"function","name":"setPetterName","inputs":[{"name":"name","type":"string","internalType":"string"}],"outputs":[],"stateMutability":"nonpayable"},{"type":"function","name":"topPets","inputs":[],"outputs":[{"name":"","type":"uint256","internalType":"uint256"}],"stateMutability":"view"},{"type":"function","name":"topPetter","inputs":[],"outputs":[{"name":"","type":"address","internalType":"address"}],"stateMutability":"view"},{"type":"function","name":"totalPets","inputs":[],"outputs":[{"name":"","type":"uint256","internalType":"uint256"}],"stateMutability":"view"},{"type":"event","name":"CapybaraPetted","inputs":[{"name":"petter","type":"address","indexed":true,"internalType":"address"},{"name":"totalPets","type":"uint256","indexed":false,"internalType":"uint256"},{"name":"name","type":"string","indexed":false,"internalType":"string"}],"anonymous":false},{"type":"event","name":"PetterRenamed","inputs":[{"name":"petter","type":"address","indexed":true,"internalType":"address"},{"name":"newName","type":"string","indexed":false,"internalType":"string"}],"anonymous":false},{"type":"event","name":"TopPetterChanged","inputs":[{"name":"newTop","type":"address","indexed":true,"internalType":"address"},{"name":"pets","type":"uint256","indexed":false,"internalType":"uint256"}],"anonymous":false}],"bytecode":{"object":"0x6080604052348015600e575f5ffd5b505f5f81905550610e92806100225f395ff3fe608060405234801561000f575f5ffd5b5060043610610086575f3560e01c8063987eae8f11610059578063987eae8f14610100578063bbc67c131461011e578063dd45d39114610150578063e30bd1a81461018057610086565b806327a18f551461008a5780633f1b84d1146100a857806349398896146100d85780638c3b013d146100f6575b5f5ffd5b61009261019c565b60405161009f919061072a565b60405180910390f35b6100c260048036038101906100bd9190610775565b6101c1565b6040516100cf91906107b8565b60405180910390f35b6100e06101d6565b6040516100ed91906107b8565b60405180910390f35b6100fe6101dc565b005b6101086103ef565b60405161011591906107b8565b60405180910390f35b61013860048036038101906101339190610775565b6103f4565b6040516101479392919061085b565b60405180910390f35b61016a60048036038101906101659190610775565b61055a565b6040516101779190610897565b60405180910390f35b61019a60048036038101906101959190610918565b6105f5565b005b60015f9054906101000a900473ffffffffffffffffffffffffffffffffffffffff1681565b6003602052805f5260405f205f915090505481565b60025481565b5f5f8154809291906101ed90610990565b919050555060035f3373ffffffffffffffffffffffffffffffffffffffff1673ffffffffffffffffffffffffffffffffffffffff1681526020019081526020015f205f81548092919061023f90610990565b919050555060025460035f3373ffffffffffffffffffffffffffffffffffffffff1673ffffffffffffffffffffffffffffffffffffffff1681526020019081526020015f20541115610360573360015f6101000a81548173ffffffffffffffffffffffffffffffffffffffff021916908373ffffffffffffffffffffffffffffffffffffffff16021790555060035f3373ffffffffffffffffffffffffffffffffffffffff1673ffffffffffffffffffffffffffffffffffffffff1681526020019081526020015f20546002819055503373ffffffffffffffffffffffffffffffffffffffff167fd1e6e6c33fccb658ca6e0fd4c807b9e3854635f7aca2967af1f4864e1c3edf8a60025460405161035791906107b8565b60405180910390a25b3373ffffffffffffffffffffffffffffffffffffffff167f876e4bc62fa1cbbd911754a07d57544f14e8726ba4c424359bc2b51a1ddec3c65f5460045f3373ffffffffffffffffffffffffffffffffffffffff1673ffffffffffffffffffffffffffffffffffffffff1681526020019081526020015f206040516103e5929190610ac7565b60405180910390a2565b5f5481565b5f60605f60035f8573ffffffffffffffffffffffffffffffffffffffff1673ffffffffffffffffffffffffffffffffffffffff1681526020019081526020015f205460045f8673ffffffffffffffffffffffffffffffffffffffff1673ffffffffffffffffffffffffffffffffffffffff1681526020019081526020015f2060015f9054906101000a900473ffffffffffffffffffffffffffffffffffffffff1673ffffffffffffffffffffffffffffffffffffffff168673ffffffffffffffffffffffffffffffffffffffff16148180546104cf90610a04565b80601f01602080910402602001604051908101604052809291908181526020018280546104fb90610a04565b80156105465780601f1061051d57610100808354040283529160200191610546565b820191905f5260205f20905b81548152906001019060200180831161052957829003601f168201915b505050505091509250925092509193909250565b6004602052805f5260405f205f91509050805461057690610a04565b80601f01602080910402602001604051908101604052809291908181526020018280546105a290610a04565b80156105ed5780601f106105c4576101008083540402835291602001916105ed565b820191905f5260205f20905b8154815290600101906020018083116105d057829003601f168201915b505050505081565b5f8282905011801561060b575060208282905011155b61064a576040517f08c379a000000000000000000000000000000000000000000000000000000000815260040161064190610b3f565b60405180910390fd5b818160045f3373ffffffffffffffffffffffffffffffffffffffff1673ffffffffffffffffffffffffffffffffffffffff1681526020019081526020015f209182610696929190610d33565b503373ffffffffffffffffffffffffffffffffffffffff167f62da396bfe73278c15e2a65ebc6466d839fe644fde939ecbf4ec63b96a4153cc83836040516106df929190610e3a565b60405180910390a25050565b5f73ffffffffffffffffffffffffffffffffffffffff82169050919050565b5f610714826106eb565b9050919050565b6107248161070a565b82525050565b5f60208201905061073d5f83018461071b565b92915050565b5f5ffd5b5f5ffd5b6107548161070a565b811461075e575f5ffd5b50565b5f8135905061076f8161074b565b92915050565b5f6020828403121561078a57610789610743565b5b5f61079784828501610761565b91505092915050565b5f819050919050565b6107b2816107a0565b82525050565b5f6020820190506107cb5f8301846107a9565b92915050565b5f81519050919050565b5f82825260208201905092915050565b8281835e5f83830152505050565b5f601f19601f8301169050919050565b5f610813826107d1565b61081d81856107db565b935061082d8185602086016107eb565b610836816107f9565b840191505092915050565b5f8115159050919050565b61085581610841565b82525050565b5f60608201905061086e5f8301866107a9565b81810360208301526108808185610809565b905061088f604083018461084c565b949350505050565b5f6020820190508181035f8301526108af8184610809565b905092915050565b5f5ffd5b5f5ffd5b5f5ffd5b5f5f83601f8401126108d8576108d76108b7565b5b8235905067ffffffffffffffff8111156108f5576108f46108bb565b5b602083019150836001820283011115610911576109106108bf565b5b9250929050565b5f5f6020838503121561092e5761092d610743565b5b5f83013567ffffffffffffffff81111561094b5761094a610747565b5b610957858286016108c3565b92509250509250929050565b7f4e487b71000000000000000000000000000000000000000000000000000000005f52601160045260245ffd5b5f61099a826107a0565b91507fffffffffffffffffffffffffffffffffffffffffffffffffffffffffffffffff82036109cc576109cb610963565b5b600182019050919050565b7f4e487b71000000000000000000000000000000000000000000000000000000005f52602260045260245ffd5b5f6002820490506001821680610a1b57607f821691505b602082108103610a2e57610a2d6109d7565b5b50919050565b5f819050815f5260205f209050919050565b5f8154610a5281610a04565b610a5c81866107db565b9450600182165f8114610a765760018114610a8c57610abe565b60ff198316865281151560200286019350610abe565b610a9585610a34565b5f5b83811015610ab657815481890152600182019150602081019050610a97565b808801955050505b50505092915050565b5f604082019050610ada5f8301856107a9565b8181036020830152610aec8184610a46565b90509392505050565b7f4e616d653a20312d3332206368617273000000000000000000000000000000005f82015250565b5f610b296010836107db565b9150610b3482610af5565b602082019050919050565b5f6020820190508181035f830152610b5681610b1d565b9050919050565b5f82905092915050565b7f4e487b71000000000000000000000000000000000000000000000000000000005f52604160045260245ffd5b5f6020601f8301049050919050565b5f82821b905092915050565b5f60088302610bde7fffffffffffffffffffffffffffffffffffffffffffffffffffffffffffffffff82610ba3565b610be88683610ba3565b95508019841693508086168417925050509392505050565b5f819050919050565b5f610c23610c1e610c19846107a0565b610c00565b6107a0565b9050919050565b5f819050919050565b610c3c83610c09565b610c50610c4882610c2a565b848454610baf565b825550505050565b5f5f905090565b610c67610c58565b610c72818484610c33565b505050565b5f5b82811015610c9857610c8d5f828401610c5f565b600181019050610c79565b505050565b601f821115610ceb5782821115610cea57610cb781610a34565b610cc083610b94565b610cc985610b94565b6020861015610cd6575f90505b808301610ce582840382610c77565b505050505b5b505050565b5f82821c905092915050565b5f610d0b5f1984600802610cf0565b1980831691505092915050565b5f610d238383610cfc565b9150826002028217905092915050565b610d3d8383610b5d565b67ffffffffffffffff811115610d5657610d55610b67565b5b610d608254610a04565b610d6b828285610c9d565b5f601f831160018114610d98575f8415610d86578287013590505b610d908582610d18565b865550610df7565b601f198416610da686610a34565b5f5b82811015610dcd57848901358255600182019150602085019450602081019050610da8565b86831015610dea5784890135610de6601f891682610cfc565b8355505b6001600288020188555050505b50505050505050565b828183375f83830152505050565b5f610e1983856107db565b9350610e26838584610e00565b610e2f836107f9565b840190509392505050565b5f6020820190508181035f830152610e53818486610e0e565b9050939250505056fea26469706673582212200f5e687819557cec4d36dadb4acc6d629b589596a8dcee8dff37be20fcd10b6f64736f6c63430008210033","linkReferences":{}},"methodIdentifiers":{"getPetterStats(address)":"bbc67c13","petCapybara()":"8c3b013d","petterNames(address)":"dd45d391","petterPets(address)":"3f1b84d1","setPetterName(string)":"e30bd1a8","topPets()":"49398896","topPetter()":"27a18f55","totalPets()":"987eae8f"},"id":0}